{
  "contractName": "KYC",
  "abi": [
    {
      "inputs": [],
      "payable": false,
      "stateMutability": "nonpayable",
      "type": "constructor"
    },
    {
      "constant": false,
      "inputs": [
        {
          "name": "_userName",
          "type": "string"
        },
        {
          "name": "_customerData",
          "type": "string"
        }
      ],
      "name": "addCustomer",
      "outputs": [],
      "payable": false,
      "stateMutability": "nonpayable",
      "type": "function"
    },
    {
      "constant": true,
      "inputs": [
        {
          "name": "_userName",
          "type": "string"
        }
      ],
      "name": "viewCustomer",
      "outputs": [
        {
          "name": "",
          "type": "string"
        },
        {
          "name": "",
          "type": "string"
        },
        {
          "name": "",
          "type": "address"
        },
        {
          "name": "",
          "type": "bool"
        },
        {
          "name": "",
          "type": "uint256"
        },
        {
          "name": "",
          "type": "uint256"
        }
      ],
      "payable": false,
      "stateMutability": "view",
      "type": "function"
    },
    {
      "constant": false,
      "inputs": [
        {
          "name": "_userName",
          "type": "string"
        },
        {
          "name": "_newcustomerData",
          "type": "string"
        }
      ],
      "name": "modifyCustomer",
      "outputs": [],
      "payable": false,
      "stateMutability": "nonpayable",
      "type": "function"
    },
    {
      "constant": false,
      "inputs": [
        {
          "name": "_userName",
          "type": "string"
        },
        {
          "name": "_customerData",
          "type": "string"
        }
      ],
      "name": "addRequest",
      "outputs": [],
      "payable": false,
      "stateMutability": "nonpayable",
      "type": "function"
    },
    {
      "constant": false,
      "inputs": [
        {
          "name": "_userName",
          "type": "string"
        }
      ],
      "name": "removeRequest",
      "outputs": [],
      "payable": false,
      "stateMutability": "nonpayable",
      "type": "function"
    },
    {
      "constant": false,
      "inputs": [
        {
          "name": "_userName",
          "type": "string"
        }
      ],
      "name": "upvoteCustomer",
      "outputs": [],
      "payable": false,
      "stateMutability": "nonpayable",
      "type": "function"
    },
    {
      "constant": false,
      "inputs": [
        {
          "name": "_userName",
          "type": "string"
        }
      ],
      "name": "downvoteCustomer",
      "outputs": [],
      "payable": false,
      "stateMutability": "nonpayable",
      "type": "function"
    },
    {
      "constant": true,
      "inputs": [
        {
          "name": "_bankAddress",
          "type": "address"
        }
      ],
      "name": "getBankComplaints",
      "outputs": [
        {
          "name": "",
          "type": "uint256"
        }
      ],
      "payable": false,
      "stateMutability": "view",
      "type": "function"
    },
    {
      "constant": true,
      "inputs": [
        {
          "name": "_bankAddress",
          "type": "address"
        }
      ],
      "name": "viewBankDetails",
      "outputs": [
        {
          "name": "",
          "type": "string"
        },
        {
          "name": "",
          "type": "address"
        },
        {
          "name": "",
          "type": "string"
        },
        {
          "name": "",
          "type": "uint256"
        },
        {
          "name": "",
          "type": "uint256"
        },
        {
          "name": "",
          "type": "bool"
        }
      ],
      "payable": false,
      "stateMutability": "view",
      "type": "function"
    },
    {
      "constant": false,
      "inputs": [
        {
          "name": "_bankName",
          "type": "string"
        },
        {
          "name": "_bankAddress",
          "type": "address"
        }
      ],
      "name": "reportBank",
      "outputs": [],
      "payable": false,
      "stateMutability": "nonpayable",
      "type": "function"
    },
    {
      "constant": false,
      "inputs": [
        {
          "name": "_bankName",
          "type": "string"
        },
        {
          "name": "_bankAddress",
          "type": "address"
        },
        {
          "name": "_regNumber",
          "type": "string"
        }
      ],
      "name": "addBank",
      "outputs": [],
      "payable": false,
      "stateMutability": "nonpayable",
      "type": "function"
    },
    {
      "constant": false,
      "inputs": [
        {
          "name": "_bankAddress",
          "type": "address"
        }
      ],
      "name": "removeBank",
      "outputs": [],
      "payable": false,
      "stateMutability": "nonpayable",
      "type": "function"
    },
    {
      "constant": false,
      "inputs": [
        {
          "name": "_bankAddress",
          "type": "address"
        },
        {
          "name": "updatedValue",
          "type": "bool"
        }
      ],
      "name": "modifyIsAllowedToVote",
      "outputs": [],
      "payable": false,
      "stateMutability": "nonpayable",
      "type": "function"
    }
  ],
  "bytecode": "0x608060405234801561001057600080fd5b506000808190555033600160006101000a81548173ffffffffffffffffffffffffffffffffffffffff021916908373ffffffffffffffffffffffffffffffffffffffff16021790555061457f806100686000396000f3fe608060405234801561001057600080fd5b50600436106100cf5760003560e01c80639649650c1161008c578063ccfa8e7111610066578063ccfa8e71146109c6578063e27fd50b14610b38578063f2f4ed8f14610b88578063f72860ca14610c43576100cf565b80639649650c14610755578063b9da4af814610799578063cbe1f785146108eb576100cf565b8063107925bb146100d45780633190abc0146102c05780635ec2a7f2146104125780636cba00e61461046a5780637d38d7111461052557806388cc8d8d146105e0575b600080fd5b61018d600480360360208110156100ea57600080fd5b810190808035906020019064010000000081111561010757600080fd5b82018360208201111561011957600080fd5b8035906020019184600183028401116401000000008311171561013b57600080fd5b91908080601f016020809104026020016040519081016040528093929190818152602001838380828437600081840152601f19601f820116905080830192505050505050509192919290505050610d95565b6040518080602001806020018773ffffffffffffffffffffffffffffffffffffffff1673ffffffffffffffffffffffffffffffffffffffff16815260200186151515158152602001858152602001848152602001838103835289818151815260200191508051906020019080838360005b838110156102195780820151818401526020810190506101fe565b50505050905090810190601f1680156102465780820380516001836020036101000a031916815260200191505b50838103825288818151815260200191508051906020019080838360005b8381101561027f578082015181840152602081019050610264565b50505050905090810190601f1680156102ac5780820380516001836020036101000a031916815260200191505b509850505050505050505060405180910390f35b610410600480360360408110156102d657600080fd5b81019080803590602001906401000000008111156102f357600080fd5b82018360208201111561030557600080fd5b8035906020019184600183028401116401000000008311171561032757600080fd5b91908080601f016020809104026020016040519081016040528093929190818152602001838380828437600081840152601f19601f8201169050808301925050505050505091929192908035906020019064010000000081111561038a57600080fd5b82018360208201111561039c57600080fd5b803590602001918460018302840111640100000000831117156103be57600080fd5b91908080601f016020809104026020016040519081016040528093929190818152602001838380828437600081840152601f19601f82011690508083019250505050505050919291929050505061139e565b005b6104546004803603602081101561042857600080fd5b81019080803573ffffffffffffffffffffffffffffffffffffffff169060200190929190505050611748565b6040518082815260200191505060405180910390f35b6105236004803603602081101561048057600080fd5b810190808035906020019064010000000081111561049d57600080fd5b8201836020820111156104af57600080fd5b803590602001918460018302840111640100000000831117156104d157600080fd5b91908080601f016020809104026020016040519081016040528093929190818152602001838380828437600081840152601f19601f82011690508083019250505050505050919291929050505061187b565b005b6105de6004803603602081101561053b57600080fd5b810190808035906020019064010000000081111561055857600080fd5b82018360208201111561056a57600080fd5b8035906020019184600183028401116401000000008311171561058c57600080fd5b91908080601f016020809104026020016040519081016040528093929190818152602001838380828437600081840152601f19601f820116905080830192505050505050509192919290505050611c08565b005b610622600480360360208110156105f657600080fd5b81019080803573ffffffffffffffffffffffffffffffffffffffff1690602001909291905050506120d3565b60405180806020018773ffffffffffffffffffffffffffffffffffffffff1673ffffffffffffffffffffffffffffffffffffffff1681526020018060200186815260200185815260200184151515158152602001838103835289818151815260200191508051906020019080838360005b838110156106ae578082015181840152602081019050610693565b50505050905090810190601f1680156106db5780820380516001836020036101000a031916815260200191505b50838103825287818151815260200191508051906020019080838360005b838110156107145780820151818401526020810190506106f9565b50505050905090810190601f1680156107415780820380516001836020036101000a031916815260200191505b509850505050505050505060405180910390f35b6107976004803603602081101561076b57600080fd5b81019080803573ffffffffffffffffffffffffffffffffffffffff1690602001909291905050506125b7565b005b6108e9600480360360408110156107af57600080fd5b81019080803590602001906401000000008111156107cc57600080fd5b8201836020820111156107de57600080fd5b8035906020019184600183028401116401000000008311171561080057600080fd5b91908080601f016020809104026020016040519081016040528093929190818152602001838380828437600081840152601f19601f8201169050808301925050505050505091929192908035906020019064010000000081111561086357600080fd5b82018360208201111561087557600080fd5b8035906020019184600183028401116401000000008311171561089757600080fd5b91908080601f016020809104026020016040519081016040528093929190818152602001838380828437600081840152601f19601f82011690508083019250505050505050919291929050505061271d565b005b6109c46004803603604081101561090157600080fd5b810190808035906020019064010000000081111561091e57600080fd5b82018360208201111561093057600080fd5b8035906020019184600183028401116401000000008311171561095257600080fd5b91908080601f016020809104026020016040519081016040528093929190818152602001838380828437600081840152601f19601f820116905080830192505050505050509192919290803573ffffffffffffffffffffffffffffffffffffffff169060200190929190505050612c2a565b005b610b36600480360360608110156109dc57600080fd5b81019080803590602001906401000000008111156109f957600080fd5b820183602082011115610a0b57600080fd5b80359060200191846001830284011164010000000083111715610a2d57600080fd5b91908080601f016020809104026020016040519081016040528093929190818152602001838380828437600081840152601f19601f820116905080830192505050505050509192919290803573ffffffffffffffffffffffffffffffffffffffff16906020019092919080359060200190640100000000811115610ab057600080fd5b820183602082011115610ac257600080fd5b80359060200191846001830284011164010000000083111715610ae457600080fd5b91908080601f016020809104026020016040519081016040528093929190818152602001838380828437600081840152601f19601f820116905080830192505050505050509192919290505050613052565b005b610b8660048036036040811015610b4e57600080fd5b81019080803573ffffffffffffffffffffffffffffffffffffffff16906020019092919080351515906020019092919050505061340e565b005b610c4160048036036020811015610b9e57600080fd5b8101908080359060200190640100000000811115610bbb57600080fd5b820183602082011115610bcd57600080fd5b80359060200191846001830284011164010000000083111715610bef57600080fd5b91908080601f016020809104026020016040519081016040528093929190818152602001838380828437600081840152601f19601f820116905080830192505050505050509192919290505050613683565b005b610d9360048036036040811015610c5957600080fd5b8101908080359060200190640100000000811115610c7657600080fd5b820183602082011115610c8857600080fd5b80359060200191846001830284011164010000000083111715610caa57600080fd5b91908080601f016020809104026020016040519081016040528093929190818152602001838380828437600081840152601f19601f82011690508083019250505050505050919291929080359060200190640100000000811115610d0d57600080fd5b820183602082011115610d1f57600080fd5b80359060200191846001830284011164010000000083111715610d4157600080fd5b91908080601f016020809104026020016040519081016040528093929190818152602001838380828437600081840152601f19601f820116905080830192505050505050509192919290505050613b4e565b005b606080600080600080600073ffffffffffffffffffffffffffffffffffffffff16600460003373ffffffffffffffffffffffffffffffffffffffff1673ffffffffffffffffffffffffffffffffffffffff16815260200190815260200160002060010160009054906101000a900473ffffffffffffffffffffffffffffffffffffffff1673ffffffffffffffffffffffffffffffffffffffff161415610e86576040517f08c379a00000000000000000000000000000000000000000000000000000000081526004018080602001828103825260258152602001806143796025913960400191505060405180910390fd5b600073ffffffffffffffffffffffffffffffffffffffff166003886040518082805190602001908083835b60208310610ed45780518252602082019150602081019050602083039250610eb1565b6001836020036101000a038019825116818451168082178552505050505050905001915050908152602001604051809103902060010160009054906101000a900473ffffffffffffffffffffffffffffffffffffffff1673ffffffffffffffffffffffffffffffffffffffff161415610f98576040517f08c379a00000000000000000000000000000000000000000000000000000000081526004018080602001828103825260278152602001806144b06027913960400191505060405180910390fd5b6003876040518082805190602001908083835b60208310610fce5780518252602082019150602081019050602083039250610fab565b6001836020036101000a03801982511681845116808217855250505050505090500191505090815260200160405180910390206000016003886040518082805190602001908083835b6020831061103a5780518252602082019150602081019050602083039250611017565b6001836020036101000a03801982511681845116808217855250505050505090500191505090815260200160405180910390206002016003896040518082805190602001908083835b602083106110a65780518252602082019150602081019050602083039250611083565b6001836020036101000a038019825116818451168082178552505050505050905001915050908152602001604051809103902060010160009054906101000a900473ffffffffffffffffffffffffffffffffffffffff1660038a6040518082805190602001908083835b602083106111335780518252602082019150602081019050602083039250611110565b6001836020036101000a038019825116818451168082178552505050505050905001915050908152602001604051809103902060030160009054906101000a900460ff1660038b6040518082805190602001908083835b602083106111ad578051825260208201915060208101905060208303925061118a565b6001836020036101000a03801982511681845116808217855250505050505090500191505090815260200160405180910390206005015460038c6040518082805190602001908083835b6020831061121a57805182526020820191506020810190506020830392506111f7565b6001836020036101000a038019825116818451168082178552505050505050905001915050908152602001604051809103902060040154858054600181600116156101000203166002900480601f0160208091040260200160405190810160405280929190818152602001828054600181600116156101000203166002900480156112e65780601f106112bb576101008083540402835291602001916112e6565b820191906000526020600020905b8154815290600101906020018083116112c957829003601f168201915b50505050509550848054600181600116156101000203166002900480601f0160208091040260200160405190810160405280929190818152602001828054600181600116156101000203166002900480156113825780601f1061135757610100808354040283529160200191611382565b820191906000526020600020905b81548152906001019060200180831161136557829003601f168201915b5050505050945095509550955095509550955091939550919395565b600073ffffffffffffffffffffffffffffffffffffffff16600460003373ffffffffffffffffffffffffffffffffffffffff1673ffffffffffffffffffffffffffffffffffffffff16815260200190815260200160002060010160009054906101000a900473ffffffffffffffffffffffffffffffffffffffff1673ffffffffffffffffffffffffffffffffffffffff161415611486576040517f08c379a00000000000000000000000000000000000000000000000000000000081526004018080602001828103825260258152602001806143796025913960400191505060405180910390fd5b600073ffffffffffffffffffffffffffffffffffffffff166003836040518082805190602001908083835b602083106114d457805182526020820191506020810190506020830392506114b1565b6001836020036101000a038019825116818451168082178552505050505050905001915050908152602001604051809103902060010160009054906101000a900473ffffffffffffffffffffffffffffffffffffffff1673ffffffffffffffffffffffffffffffffffffffff1614611597576040517f08c379a00000000000000000000000000000000000000000000000000000000081526004018080602001828103825260518152602001806144fa6051913960600191505060405180910390fd5b816003836040518082805190602001908083835b602083106115ce57805182526020820191506020810190506020830392506115ab565b6001836020036101000a038019825116818451168082178552505050505050905001915050908152602001604051809103902060000190805190602001906116179291906141d3565b50806003836040518082805190602001908083835b6020831061164f578051825260208201915060208101905060208303925061162c565b6001836020036101000a038019825116818451168082178552505050505050905001915050908152602001604051809103902060020190805190602001906116989291906141d3565b50336003836040518082805190602001908083835b602083106116d057805182526020820191506020810190506020830392506116ad565b6001836020036101000a038019825116818451168082178552505050505050905001915050908152602001604051809103902060010160006101000a81548173ffffffffffffffffffffffffffffffffffffffff021916908373ffffffffffffffffffffffffffffffffffffffff1602179055505050565b60008073ffffffffffffffffffffffffffffffffffffffff16600460003373ffffffffffffffffffffffffffffffffffffffff1673ffffffffffffffffffffffffffffffffffffffff16815260200190815260200160002060010160009054906101000a900473ffffffffffffffffffffffffffffffffffffffff1673ffffffffffffffffffffffffffffffffffffffff161415611831576040517f08c379a00000000000000000000000000000000000000000000000000000000081526004018080602001828103825260258152602001806143796025913960400191505060405180910390fd5b600460008373ffffffffffffffffffffffffffffffffffffffff1673ffffffffffffffffffffffffffffffffffffffff168152602001908152602001600020600301549050919050565b600073ffffffffffffffffffffffffffffffffffffffff16600460003373ffffffffffffffffffffffffffffffffffffffff1673ffffffffffffffffffffffffffffffffffffffff16815260200190815260200160002060010160009054906101000a900473ffffffffffffffffffffffffffffffffffffffff1673ffffffffffffffffffffffffffffffffffffffff161415611963576040517f08c379a00000000000000000000000000000000000000000000000000000000081526004018080602001828103825260258152602001806143796025913960400191505060405180910390fd5b600073ffffffffffffffffffffffffffffffffffffffff166002826040518082805190602001908083835b602083106119b1578051825260208201915060208101905060208303925061198e565b6001836020036101000a038019825116818451168082178552505050505050905001915050908152602001604051809103902060010160009054906101000a900473ffffffffffffffffffffffffffffffffffffffff1673ffffffffffffffffffffffffffffffffffffffff161415611a75576040517f08c379a000000000000000000000000000000000000000000000000000000000815260040180806020018281038252602d8152602001806143c4602d913960400191505060405180910390fd5b6001600460006002846040518082805190602001908083835b60208310611ab15780518252602082019150602081019050602083039250611a8e565b6001836020036101000a038019825116818451168082178552505050505050905001915050908152602001604051809103902060010160009054906101000a900473ffffffffffffffffffffffffffffffffffffffff1673ffffffffffffffffffffffffffffffffffffffff1673ffffffffffffffffffffffffffffffffffffffff168152602001908152602001600020600401600082825403925050819055506002816040518082805190602001908083835b60208310611b885780518252602082019150602081019050602083039250611b65565b6001836020036101000a038019825116818451168082178552505050505050905001915050908152602001604051809103902060008082016000611bcc9190614253565b6001820160006101000a81549073ffffffffffffffffffffffffffffffffffffffff0219169055600282016000611c039190614253565b505050565b600073ffffffffffffffffffffffffffffffffffffffff16600460003373ffffffffffffffffffffffffffffffffffffffff1673ffffffffffffffffffffffffffffffffffffffff16815260200190815260200160002060010160009054906101000a900473ffffffffffffffffffffffffffffffffffffffff1673ffffffffffffffffffffffffffffffffffffffff161415611cf0576040517f08c379a00000000000000000000000000000000000000000000000000000000081526004018080602001828103825260258152602001806143796025913960400191505060405180910390fd5b806060600560003373ffffffffffffffffffffffffffffffffffffffff1673ffffffffffffffffffffffffffffffffffffffff168152602001908152602001600020805480602002602001604051908101604052809291908181526020016000905b82821015611e0e578382906000526020600020018054600181600116156101000203166002900480601f016020809104026020016040519081016040528092919081815260200182805460018160011615610100020316600290048015611dfa5780601f10611dcf57610100808354040283529160200191611dfa565b820191906000526020600020905b815481529060010190602001808311611ddd57829003601f168201915b505050505081526020019060010190611d52565b50505050905060008090505b8151811015611eaa578280519060200120828281518110611e3757fe5b6020026020010151805190602001201415611e9d576040517f08c379a000000000000000000000000000000000000000000000000000000000815260040180806020018281038252602d815260200180614483602d913960400191505060405180910390fd5b8080600101915050611e1a565b5060011515600460003373ffffffffffffffffffffffffffffffffffffffff1673ffffffffffffffffffffffffffffffffffffffff16815260200190815260200160002060050160009054906101000a900460ff16151514611f57576040517f08c379a000000000000000000000000000000000000000000000000000000000815260040180806020018281038252602181526020018061443c6021913960400191505060405180910390fd5b600560003373ffffffffffffffffffffffffffffffffffffffff1673ffffffffffffffffffffffffffffffffffffffff1681526020019081526020016000206003846040518082805190602001908083835b60208310611fcc5780518252602082019150602081019050602083039250611fa9565b6001836020036101000a0380198251168184511680821785525050505050509050019150509081526020016040518091039020600001908060018154018082558091505090600182039060005260206000200160009091929091909150908054600181600116156101000203166002900461204892919061429b565b505060016003846040518082805190602001908083835b60208310612082578051825260208201915060208101905060208303925061205f565b6001836020036101000a0380198251168184511680821785525050505050509050019150509081526020016040518091039020600401600082825403925050819055506120ce83613f64565b505050565b60606000606060008060008073ffffffffffffffffffffffffffffffffffffffff16600460003373ffffffffffffffffffffffffffffffffffffffff1673ffffffffffffffffffffffffffffffffffffffff16815260200190815260200160002060010160009054906101000a900473ffffffffffffffffffffffffffffffffffffffff1673ffffffffffffffffffffffffffffffffffffffff1614156121c5576040517f08c379a00000000000000000000000000000000000000000000000000000000081526004018080602001828103825260258152602001806143796025913960400191505060405180910390fd5b600073ffffffffffffffffffffffffffffffffffffffff16600460008973ffffffffffffffffffffffffffffffffffffffff1673ffffffffffffffffffffffffffffffffffffffff16815260200190815260200160002060010160009054906101000a900473ffffffffffffffffffffffffffffffffffffffff1673ffffffffffffffffffffffffffffffffffffffff1614156122ad576040517f08c379a000000000000000000000000000000000000000000000000000000000815260040180806020018281038252602681526020018061445d6026913960400191505060405180910390fd5b600460008873ffffffffffffffffffffffffffffffffffffffff1673ffffffffffffffffffffffffffffffffffffffff168152602001908152602001600020600001600460008973ffffffffffffffffffffffffffffffffffffffff1673ffffffffffffffffffffffffffffffffffffffff16815260200190815260200160002060010160009054906101000a900473ffffffffffffffffffffffffffffffffffffffff16600460008a73ffffffffffffffffffffffffffffffffffffffff1673ffffffffffffffffffffffffffffffffffffffff168152602001908152602001600020600201600460008b73ffffffffffffffffffffffffffffffffffffffff1673ffffffffffffffffffffffffffffffffffffffff16815260200190815260200160002060030154600460008c73ffffffffffffffffffffffffffffffffffffffff1673ffffffffffffffffffffffffffffffffffffffff16815260200190815260200160002060040154600460008d73ffffffffffffffffffffffffffffffffffffffff1673ffffffffffffffffffffffffffffffffffffffff16815260200190815260200160002060050160009054906101000a900460ff16858054600181600116156101000203166002900480601f0160208091040260200160405190810160405280929190818152602001828054600181600116156101000203166002900480156124ff5780601f106124d4576101008083540402835291602001916124ff565b820191906000526020600020905b8154815290600101906020018083116124e257829003601f168201915b50505050509550838054600181600116156101000203166002900480601f01602080910402602001604051908101604052809291908181526020018280546001816001161561010002031660029004801561259b5780601f106125705761010080835404028352916020019161259b565b820191906000526020600020905b81548152906001019060200180831161257e57829003601f168201915b5050505050935095509550955095509550955091939550919395565b600160009054906101000a900473ffffffffffffffffffffffffffffffffffffffff1673ffffffffffffffffffffffffffffffffffffffff163373ffffffffffffffffffffffffffffffffffffffff161461265d576040517f08c379a000000000000000000000000000000000000000000000000000000000815260040180806020018281038252602681526020018061439e6026913960400191505060405180910390fd5b600460008273ffffffffffffffffffffffffffffffffffffffff1673ffffffffffffffffffffffffffffffffffffffff168152602001908152602001600020600080820160006126ad9190614253565b6001820160006101000a81549073ffffffffffffffffffffffffffffffffffffffff02191690556002820160006126e49190614253565b600382016000905560048201600090556005820160006101000a81549060ff021916905550506001600080828254039250508190555050565b600073ffffffffffffffffffffffffffffffffffffffff16600460003373ffffffffffffffffffffffffffffffffffffffff1673ffffffffffffffffffffffffffffffffffffffff16815260200190815260200160002060010160009054906101000a900473ffffffffffffffffffffffffffffffffffffffff1673ffffffffffffffffffffffffffffffffffffffff161415612805576040517f08c379a00000000000000000000000000000000000000000000000000000000081526004018080602001828103825260258152602001806143796025913960400191505060405180910390fd5b600073ffffffffffffffffffffffffffffffffffffffff166003836040518082805190602001908083835b602083106128535780518252602082019150602081019050602083039250612830565b6001836020036101000a038019825116818451168082178552505050505050905001915050908152602001604051809103902060010160009054906101000a900473ffffffffffffffffffffffffffffffffffffffff1673ffffffffffffffffffffffffffffffffffffffff161415612917576040517f08c379a00000000000000000000000000000000000000000000000000000000081526004018080602001828103825260278152602001806144b06027913960400191505060405180910390fd5b600073ffffffffffffffffffffffffffffffffffffffff166002836040518082805190602001908083835b602083106129655780518252602082019150602081019050602083039250612942565b6001836020036101000a038019825116818451168082178552505050505050905001915050908152602001604051809103902060010160009054906101000a900473ffffffffffffffffffffffffffffffffffffffff1673ffffffffffffffffffffffffffffffffffffffff1614612a28576040517f08c379a00000000000000000000000000000000000000000000000000000000081526004018080602001828103825260318152602001806143486031913960400191505060405180910390fd5b816002836040518082805190602001908083835b60208310612a5f5780518252602082019150602081019050602083039250612a3c565b6001836020036101000a03801982511681845116808217855250505050505090500191505090815260200160405180910390206000019080519060200190612aa89291906141d3565b50806002836040518082805190602001908083835b60208310612ae05780518252602082019150602081019050602083039250612abd565b6001836020036101000a03801982511681845116808217855250505050505090500191505090815260200160405180910390206002019080519060200190612b299291906141d3565b50336002836040518082805190602001908083835b60208310612b615780518252602082019150602081019050602083039250612b3e565b6001836020036101000a038019825116818451168082178552505050505050905001915050908152602001604051809103902060010160006101000a81548173ffffffffffffffffffffffffffffffffffffffff021916908373ffffffffffffffffffffffffffffffffffffffff1602179055506001600460003373ffffffffffffffffffffffffffffffffffffffff1673ffffffffffffffffffffffffffffffffffffffff168152602001908152602001600020600401600082825401925050819055505050565b600073ffffffffffffffffffffffffffffffffffffffff16600460003373ffffffffffffffffffffffffffffffffffffffff1673ffffffffffffffffffffffffffffffffffffffff16815260200190815260200160002060010160009054906101000a900473ffffffffffffffffffffffffffffffffffffffff1673ffffffffffffffffffffffffffffffffffffffff161415612d12576040517f08c379a00000000000000000000000000000000000000000000000000000000081526004018080602001828103825260258152602001806143796025913960400191505060405180910390fd5b816060600660003373ffffffffffffffffffffffffffffffffffffffff1673ffffffffffffffffffffffffffffffffffffffff168152602001908152602001600020805480602002602001604051908101604052809291908181526020016000905b82821015612e30578382906000526020600020018054600181600116156101000203166002900480601f016020809104026020016040519081016040528092919081815260200182805460018160011615610100020316600290048015612e1c5780601f10612df157610100808354040283529160200191612e1c565b820191906000526020600020905b815481529060010190602001808311612dff57829003601f168201915b505050505081526020019060010190612d74565b50505050905060008090505b8151811015612ecc578280519060200120828281518110612e5957fe5b6020026020010151805190602001201415612ebf576040517f08c379a00000000000000000000000000000000000000000000000000000000081526004018080602001828103825260238152602001806144d76023913960400191505060405180910390fd5b8080600101915050612e3c565b50600660003373ffffffffffffffffffffffffffffffffffffffff1673ffffffffffffffffffffffffffffffffffffffff168152602001908152602001600020849080600181540180825580915050906001820390600052602060002001600090919290919091509080519060200190612f479291906141d3565b50506001600460008573ffffffffffffffffffffffffffffffffffffffff1673ffffffffffffffffffffffffffffffffffffffff16815260200190815260200160002060030160008282540192505081905550600360005481612fa657fe5b04600460008573ffffffffffffffffffffffffffffffffffffffff1673ffffffffffffffffffffffffffffffffffffffff16815260200190815260200160002060030154111561304c576000600460008573ffffffffffffffffffffffffffffffffffffffff1673ffffffffffffffffffffffffffffffffffffffff16815260200190815260200160002060050160006101000a81548160ff0219169083151502179055505b50505050565b600160009054906101000a900473ffffffffffffffffffffffffffffffffffffffff1673ffffffffffffffffffffffffffffffffffffffff163373ffffffffffffffffffffffffffffffffffffffff16146130f8576040517f08c379a000000000000000000000000000000000000000000000000000000000815260040180806020018281038252602681526020018061439e6026913960400191505060405180910390fd5b600073ffffffffffffffffffffffffffffffffffffffff16600460008473ffffffffffffffffffffffffffffffffffffffff1673ffffffffffffffffffffffffffffffffffffffff16815260200190815260200160002060010160009054906101000a900473ffffffffffffffffffffffffffffffffffffffff1673ffffffffffffffffffffffffffffffffffffffff16146131df576040517f08c379a00000000000000000000000000000000000000000000000000000000081526004018080602001828103825260298152602001806144136029913960400191505060405180910390fd5b82600460008473ffffffffffffffffffffffffffffffffffffffff1673ffffffffffffffffffffffffffffffffffffffff16815260200190815260200160002060000190805190602001906132359291906141d3565b5081600460008473ffffffffffffffffffffffffffffffffffffffff1673ffffffffffffffffffffffffffffffffffffffff16815260200190815260200160002060010160006101000a81548173ffffffffffffffffffffffffffffffffffffffff021916908373ffffffffffffffffffffffffffffffffffffffff16021790555080600460008473ffffffffffffffffffffffffffffffffffffffff1673ffffffffffffffffffffffffffffffffffffffff168152602001908152602001600020600201908051906020019061330d9291906141d3565b506000600460008473ffffffffffffffffffffffffffffffffffffffff1673ffffffffffffffffffffffffffffffffffffffff168152602001908152602001600020600301819055506000600460008473ffffffffffffffffffffffffffffffffffffffff1673ffffffffffffffffffffffffffffffffffffffff168152602001908152602001600020600401819055506001600460008473ffffffffffffffffffffffffffffffffffffffff1673ffffffffffffffffffffffffffffffffffffffff16815260200190815260200160002060050160006101000a81548160ff02191690831515021790555060016000808282540192505081905550505050565b600160009054906101000a900473ffffffffffffffffffffffffffffffffffffffff1673ffffffffffffffffffffffffffffffffffffffff163373ffffffffffffffffffffffffffffffffffffffff16146134b4576040517f08c379a000000000000000000000000000000000000000000000000000000000815260040180806020018281038252602681526020018061439e6026913960400191505060405180910390fd5b600073ffffffffffffffffffffffffffffffffffffffff16600460008473ffffffffffffffffffffffffffffffffffffffff1673ffffffffffffffffffffffffffffffffffffffff16815260200190815260200160002060010160009054906101000a900473ffffffffffffffffffffffffffffffffffffffff1673ffffffffffffffffffffffffffffffffffffffff16141561359c576040517f08c379a00000000000000000000000000000000000000000000000000000000081526004018080602001828103825260228152602001806143f16022913960400191505060405180910390fd5b6001151581151514806135b3575060001515811515145b613625576040517f08c379a000000000000000000000000000000000000000000000000000000000815260040180806020018281038252600d8152602001807f496e76616c696420496e7075740000000000000000000000000000000000000081525060200191505060405180910390fd5b80600460008473ffffffffffffffffffffffffffffffffffffffff1673ffffffffffffffffffffffffffffffffffffffff16815260200190815260200160002060050160006101000a81548160ff0219169083151502179055505050565b600073ffffffffffffffffffffffffffffffffffffffff16600460003373ffffffffffffffffffffffffffffffffffffffff1673ffffffffffffffffffffffffffffffffffffffff16815260200190815260200160002060010160009054906101000a900473ffffffffffffffffffffffffffffffffffffffff1673ffffffffffffffffffffffffffffffffffffffff16141561376b576040517f08c379a00000000000000000000000000000000000000000000000000000000081526004018080602001828103825260258152602001806143796025913960400191505060405180910390fd5b806060600560003373ffffffffffffffffffffffffffffffffffffffff1673ffffffffffffffffffffffffffffffffffffffff168152602001908152602001600020805480602002602001604051908101604052809291908181526020016000905b82821015613889578382906000526020600020018054600181600116156101000203166002900480601f0160208091040260200160405190810160405280929190818152602001828054600181600116156101000203166002900480156138755780601f1061384a57610100808354040283529160200191613875565b820191906000526020600020905b81548152906001019060200180831161385857829003601f168201915b5050505050815260200190600101906137cd565b50505050905060008090505b81518110156139255782805190602001208282815181106138b257fe5b6020026020010151805190602001201415613918576040517f08c379a000000000000000000000000000000000000000000000000000000000815260040180806020018281038252602d815260200180614483602d913960400191505060405180910390fd5b8080600101915050613895565b5060011515600460003373ffffffffffffffffffffffffffffffffffffffff1673ffffffffffffffffffffffffffffffffffffffff16815260200190815260200160002060050160009054906101000a900460ff161515146139d2576040517f08c379a000000000000000000000000000000000000000000000000000000000815260040180806020018281038252602181526020018061443c6021913960400191505060405180910390fd5b600560003373ffffffffffffffffffffffffffffffffffffffff1673ffffffffffffffffffffffffffffffffffffffff1681526020019081526020016000206003846040518082805190602001908083835b60208310613a475780518252602082019150602081019050602083039250613a24565b6001836020036101000a03801982511681845116808217855250505050505090500191505090815260200160405180910390206000019080600181540180825580915050906001820390600052602060002001600090919290919091509080546001816001161561010002031660029004613ac392919061429b565b505060016003846040518082805190602001908083835b60208310613afd5780518252602082019150602081019050602083039250613ada565b6001836020036101000a038019825116818451168082178552505050505050905001915050908152602001604051809103902060050160008282540192505081905550613b4983613f64565b505050565b600073ffffffffffffffffffffffffffffffffffffffff16600460003373ffffffffffffffffffffffffffffffffffffffff1673ffffffffffffffffffffffffffffffffffffffff16815260200190815260200160002060010160009054906101000a900473ffffffffffffffffffffffffffffffffffffffff1673ffffffffffffffffffffffffffffffffffffffff161415613c36576040517f08c379a00000000000000000000000000000000000000000000000000000000081526004018080602001828103825260258152602001806143796025913960400191505060405180910390fd5b600073ffffffffffffffffffffffffffffffffffffffff166003836040518082805190602001908083835b60208310613c845780518252602082019150602081019050602083039250613c61565b6001836020036101000a038019825116818451168082178552505050505050905001915050908152602001604051809103902060010160009054906101000a900473ffffffffffffffffffffffffffffffffffffffff1673ffffffffffffffffffffffffffffffffffffffff161415613d48576040517f08c379a00000000000000000000000000000000000000000000000000000000081526004018080602001828103825260278152602001806144b06027913960400191505060405180910390fd5b806003836040518082805190602001908083835b60208310613d7f5780518252602082019150602081019050602083039250613d5c565b6001836020036101000a03801982511681845116808217855250505050505090500191505090815260200160405180910390206002019080519060200190613dc89291906141d3565b5060006003836040518082805190602001908083835b60208310613e015780518252602082019150602081019050602083039250613dde565b6001836020036101000a03801982511681845116808217855250505050505090500191505090815260200160405180910390206005018190555060006003836040518082805190602001908083835b60208310613e735780518252602082019150602081019050602083039250613e50565b6001836020036101000a0380198251168184511680821785525050505050509050019150509081526020016040518091039020600401819055506002826040518082805190602001908083835b60208310613ee35780518252602082019150602081019050602083039250613ec0565b6001836020036101000a038019825116818451168082178552505050505050905001915050908152602001604051809103902060008082016000613f279190614253565b6001820160006101000a81549073ffffffffffffffffffffffffffffffffffffffff0219169055600282016000613f5e9190614253565b50505050565b6003816040518082805190602001908083835b60208310613f9a5780518252602082019150602081019050602083039250613f77565b6001836020036101000a0380198251168184511680821785525050505050509050019150509081526020016040518091039020600401546003826040518082805190602001908083835b602083106140075780518252602082019150602081019050602083039250613fe4565b6001836020036101000a03801982511681845116808217855250505050505090500191505090815260200160405180910390206005015411156140ca5760016003826040518082805190602001908083835b6020831061407c5780518252602082019150602081019050602083039250614059565b6001836020036101000a038019825116818451168082178552505050505050905001915050908152602001604051809103902060030160006101000a81548160ff0219169083151502179055505b6003600054816140d657fe5b046003826040518082805190602001908083835b6020831061410d57805182526020820191506020810190506020830392506140ea565b6001836020036101000a03801982511681845116808217855250505050505090500191505090815260200160405180910390206004015411156141d05760006003826040518082805190602001908083835b60208310614182578051825260208201915060208101905060208303925061415f565b6001836020036101000a038019825116818451168082178552505050505050905001915050908152602001604051809103902060030160006101000a81548160ff0219169083151502179055505b50565b828054600181600116156101000203166002900490600052602060002090601f016020900481019282601f1061421457805160ff1916838001178555614242565b82800160010185558215614242579182015b82811115614241578251825591602001919060010190614226565b5b50905061424f9190614322565b5090565b50805460018160011615610100020316600290046000825580601f106142795750614298565b601f0160209004906000526020600020908101906142979190614322565b5b50565b828054600181600116156101000203166002900490600052602060002090601f016020900481019282601f106142d45780548555614311565b8280016001018555821561431157600052602060002091601f016020900482015b828111156143105782548255916001019190600101906142f5565b5b50905061431e9190614322565b5090565b61434491905b80821115614340576000816000905550600101614328565b5090565b9056fe4b5943205265717565737420666f72207468697320637573746f6d657220697320616c72656164792070726573656e74214f6e6c792042616e6b732063616e207472696767657220746869732066756e6374696f6e214f6e6c792041646d696e732063616e207472696767657220746869732066756e6374696f6e214b5943205265717565737420666f72207468697320637573746f6d6572206973206e6f742070726573656e742142616e6b20776974682074686973204e616d65206973206e6f742070726573656e7442616e6b20776974682074686973206164647265737320697320616c72656164792070726573656e74596f75722062616e6b206973206e6f7420616c6c6f77656420746f20766f746521496e76616c69642061646472657373212042616e6b20646f6573206e6f742065786973742e20596f75722062616e6b2068617320616c726561647920766f74656420666f72207468697320637573746f6d6572437573746f6d6572206973206e6f742070726573656e7420696e20746865206461746162617365596f75206861766520616c7265616479207265706f7274656420746869732062616e6b437573746f6d657220697320616c72656164792070726573656e742c20706c656173652063616c6c206d6f64696679437573746f6d657220746f20656469742074686520637573746f6d65722064617461a265627a7a72305820890f77d08100cb776e807a7418563004a49c373582f1be0ea3294f3dced5c5a264736f6c63430005090032",
  "source": "pragma solidity ^0.5.9;\r\n\r\ncontract KYC{\r\n\r\n    uint bankCount;\r\n    address admin;\r\n\r\n    struct Customer {\r\n        string userName;    \r\n        address bank;\r\n        string customerData;\r\n        bool kycStatus;\r\n        uint downVotes;\r\n        uint upVotes;\r\n    }\r\n    \r\n    struct Bank {\r\n        string name;\r\n        address ethAddress;\r\n        string regNumber;\r\n        uint complaintsRecoreded;\r\n        uint kycCount;\r\n        bool isAllowedToVote;\r\n    }\r\n\r\n    struct KycRequest {\r\n        string userName;\r\n        address bankAddress;\r\n        string customerData;\r\n    }\r\n\r\n    mapping(string => KycRequest) kycRequestList;\r\n\r\n    mapping(string => Customer) customers;\r\n\r\n    mapping(address => Bank) banks;\r\n    \r\n    mapping(address => string[]) customerVotes;\r\n    \r\n    mapping(address => string[]) bankComplaints;\r\n\r\n    constructor() public {\r\n        bankCount = 0;\r\n        admin = msg.sender;\r\n    }\r\n\r\n    //Banking Functions\r\n    \r\n    function addCustomer(string memory _userName, string memory _customerData) isBank() public {\r\n        require(customers[_userName].bank == address(0), \"Customer is already present, please call modifyCustomer to edit the customer data\");\r\n        customers[_userName].userName = _userName;\r\n        customers[_userName].customerData = _customerData;\r\n        customers[_userName].bank = msg.sender;\r\n    }\r\n    \r\n    function viewCustomer(string memory _userName) isBank() public view returns (string memory, string memory, address, bool, uint, uint)  {\r\n        require(customers[_userName].bank != address(0), \"Customer is not present in the database\");\r\n        return (customers[_userName].userName, \r\n                customers[_userName].customerData, \r\n                customers[_userName].bank,\r\n                customers[_userName].kycStatus,\r\n                customers[_userName].upVotes,\r\n                customers[_userName].downVotes);\r\n    }\r\n    \r\n    function modifyCustomer(string memory _userName, string memory _newcustomerData) isBank() public {\r\n        require(customers[_userName].bank != address(0), \"Customer is not present in the database\");\r\n        customers[_userName].customerData = _newcustomerData;\r\n        customers[_userName].upVotes = 0;\r\n        customers[_userName].downVotes = 0;\r\n        delete kycRequestList[_userName];\r\n    }\r\n\r\n    function addRequest(string memory _userName, string memory _customerData) isBank() public{\r\n        require(customers[_userName].bank != address(0), \"Customer is not present in the database\");\r\n        require(kycRequestList[_userName].bankAddress == address(0), \"KYC Request for this customer is already present!\");\r\n        kycRequestList[_userName].userName = _userName;\r\n        kycRequestList[_userName].customerData = _customerData;\r\n        kycRequestList[_userName].bankAddress = msg.sender;\r\n        banks[msg.sender].kycCount +=1;\r\n\r\n    }\r\n\r\n    function removeRequest(string memory _userName) isBank() public{\r\n        require(kycRequestList[_userName].bankAddress != address(0), \"KYC Request for this customer is not present!\");\r\n        banks[kycRequestList[_userName].bankAddress].kycCount -= 1;\r\n        delete kycRequestList[_userName];\r\n        \r\n    }\r\n      \r\n    function upvoteCustomer(string memory _userName) isBank() hasAlreadyVoted(_userName) isAllowedToVote() public{\r\n        customerVotes[msg.sender].push(customers[_userName].userName);\r\n        customers[_userName].upVotes += 1;\r\n        changeKycStatus(_userName);\r\n    }  \r\n\r\n    function downvoteCustomer(string memory _userName) isBank() hasAlreadyVoted(_userName) isAllowedToVote() public{\r\n        customerVotes[msg.sender].push(customers[_userName].userName);\r\n        customers[_userName].downVotes -= 1;\r\n        changeKycStatus(_userName);\r\n    }  \r\n    \r\n    function changeKycStatus(string memory _userName) internal{\r\n        if (customers[_userName].upVotes > customers[_userName].downVotes) {\r\n            customers[_userName].kycStatus = true;\r\n        }\r\n        if (customers[_userName].downVotes > (bankCount/3)) {\r\n            customers[_userName].kycStatus = false;\r\n        }\r\n    }\r\n\r\n    function getBankComplaints(address _bankAddress) isBank() public view returns (uint) {\r\n        return banks[_bankAddress].complaintsRecoreded;\r\n    }  \r\n\r\n    function viewBankDetails(address _bankAddress) isBank() public view returns (string memory, address, string memory, uint, uint, bool) {\r\n        require(banks[_bankAddress].ethAddress != address(0), \"Invalid address! Bank does not exist. \");\r\n        return (banks[_bankAddress].name,\r\n                banks[_bankAddress].ethAddress,\r\n                banks[_bankAddress].regNumber,\r\n                banks[_bankAddress].complaintsRecoreded,\r\n                banks[_bankAddress].kycCount,\r\n                banks[_bankAddress].isAllowedToVote);\r\n    }  \r\n\r\n    function reportBank(string memory _bankName, address _bankAddress) isBank() hasAlreadyReportedBank(_bankName) public{\r\n        bankComplaints[msg.sender].push(_bankName);\r\n        banks[_bankAddress].complaintsRecoreded += 1; \r\n        if (banks[_bankAddress].complaintsRecoreded > (bankCount/3)) {\r\n            banks[_bankAddress].isAllowedToVote = false;\r\n        }\r\n    }\r\n\r\n    //Admin Functions\r\n\r\n    function addBank(string memory _bankName, address _bankAddress, string memory _regNumber) isAdmin() public{\r\n        require(banks[_bankAddress].ethAddress == address(0), \"Bank with this address is already present\");\r\n        banks[_bankAddress].name = _bankName;\r\n        banks[_bankAddress].ethAddress = _bankAddress;\r\n        banks[_bankAddress].regNumber = _regNumber;\r\n        banks[_bankAddress].complaintsRecoreded = 0;\r\n        banks[_bankAddress].kycCount = 0;\r\n        banks[_bankAddress].isAllowedToVote = true;\r\n        bankCount += 1;\r\n    }\r\n\r\n    function removeBank(address _bankAddress) isAdmin() public{\r\n        delete banks[_bankAddress];\r\n        bankCount -= 1;\r\n    }\r\n\r\n    function modifyIsAllowedToVote(address _bankAddress, bool updatedValue) isAdmin() public{\r\n        require(banks[_bankAddress].ethAddress != address(0), \"Bank with this Name is not present\");\r\n        require(updatedValue == true || updatedValue == false , \"Invalid Input\");\r\n        banks[_bankAddress].isAllowedToVote = updatedValue;\r\n    }\r\n\r\n    modifier isAdmin {\r\n        require(msg.sender == admin, \"Only Admins can trigger this function!\");\r\n        _;\r\n    }\r\n\r\n    modifier isBank {\r\n        require(banks[msg.sender].ethAddress != address(0), \"Only Banks can trigger this function!\");\r\n        _;\r\n    }\r\n\r\n    modifier hasAlreadyVoted (string memory _userName) {\r\n        string[] memory voted = customerVotes[msg.sender];\r\n        for (uint i=0; i < voted.length; i++){\r\n            if (keccak256(bytes(voted[i])) == keccak256(bytes(_userName))){\r\n               revert(\"Your bank has already voted for this customer\"); \r\n            }\r\n        }\r\n        _;\r\n    }    \r\n\r\n    modifier isAllowedToVote {\r\n        require(banks[msg.sender].isAllowedToVote == true, \"Your bank is not allowed to vote!\");\r\n        _;\r\n    }\r\n    \r\n    modifier hasAlreadyReportedBank (string memory _bankName) {\r\n        string[] memory complaints = bankComplaints[msg.sender];\r\n        for (uint i=0; i < complaints.length; i++){\r\n            if (keccak256(bytes(complaints[i])) == keccak256(bytes(_bankName))){\r\n               revert(\"You have already reported this bank\"); \r\n            }\r\n        }\r\n        _;\r\n    }\r\n\r\n}    \r\n\r\n\r\n",
  "sourcePath": "D:\\Prasad\\upgrad\\kyc-blockchain\\contracts\\kyc.sol",
  "compiler": {
    "name": "solc",
    "version": "0.5.9+commit.e560f70d.Emscripten.clang"
  },
  "schemaVersion": "3.4.3",
  "updatedAt": "2021-09-26T18:27:13.283Z",
  "networkType": "ethereum",
  "devdoc": {
    "methods": {}
  },
  "userdoc": {
    "methods": {}
  }
}